{
	"_format": "hh-sol-artifact-1",
	"contractName": "CrptoVillageSolscription",
	"sourceName": "contracts/Solscribe.sol",
	"abi": [
		{
			"inputs": [],
			"stateMutability": "nonpayable",
			"type": "constructor"
		},
		{
			"anonymous": false,
			"inputs": [
				{
					"indexed": true,
					"internalType": "address",
					"name": "owner",
					"type": "address"
				},
				{
					"indexed": true,
					"internalType": "address",
					"name": "approved",
					"type": "address"
				},
				{
					"indexed": true,
					"internalType": "uint256",
					"name": "tokenId",
					"type": "uint256"
				}
			],
			"name": "Approval",
			"type": "event"
		},
		{
			"anonymous": false,
			"inputs": [
				{
					"indexed": true,
					"internalType": "address",
					"name": "owner",
					"type": "address"
				},
				{
					"indexed": true,
					"internalType": "address",
					"name": "operator",
					"type": "address"
				},
				{
					"indexed": false,
					"internalType": "bool",
					"name": "approved",
					"type": "bool"
				}
			],
			"name": "ApprovalForAll",
			"type": "event"
		},
		{
			"anonymous": false,
			"inputs": [
				{
					"indexed": true,
					"internalType": "address",
					"name": "to",
					"type": "address"
				},
				{
					"indexed": true,
					"internalType": "uint256",
					"name": "tokenId",
					"type": "uint256"
				}
			],
			"name": "Attest",
			"type": "event"
		},
		{
			"anonymous": false,
			"inputs": [
				{
					"indexed": true,
					"internalType": "address",
					"name": "previousOwner",
					"type": "address"
				},
				{
					"indexed": true,
					"internalType": "address",
					"name": "newOwner",
					"type": "address"
				}
			],
			"name": "OwnershipTransferred",
			"type": "event"
		},
		{
			"anonymous": false,
			"inputs": [
				{
					"indexed": true,
					"internalType": "address",
					"name": "to",
					"type": "address"
				},
				{
					"indexed": true,
					"internalType": "uint256",
					"name": "tokenId",
					"type": "uint256"
				}
			],
			"name": "Revoke",
			"type": "event"
		},
		{
			"anonymous": false,
			"inputs": [
				{
					"indexed": true,
					"internalType": "address",
					"name": "from",
					"type": "address"
				},
				{
					"indexed": true,
					"internalType": "address",
					"name": "to",
					"type": "address"
				},
				{
					"indexed": true,
					"internalType": "uint256",
					"name": "tokenId",
					"type": "uint256"
				}
			],
			"name": "Transfer",
			"type": "event"
		},
		{
			"anonymous": false,
			"inputs": [
				{
					"indexed": true,
					"internalType": "uint256",
					"name": "tokenId",
					"type": "uint256"
				},
				{
					"indexed": true,
					"internalType": "address",
					"name": "user",
					"type": "address"
				},
				{
					"indexed": false,
					"internalType": "uint64",
					"name": "expires",
					"type": "uint64"
				}
			],
			"name": "UpdateUser",
			"type": "event"
		},
		{
			"inputs": [
				{
					"internalType": "address",
					"name": "to",
					"type": "address"
				},
				{
					"internalType": "uint256",
					"name": "tokenId",
					"type": "uint256"
				}
			],
			"name": "approve",
			"outputs": [],
			"stateMutability": "nonpayable",
			"type": "function"
		},
		{
			"inputs": [
				{
					"internalType": "address",
					"name": "owner",
					"type": "address"
				}
			],
			"name": "balanceOf",
			"outputs": [
				{
					"internalType": "uint256",
					"name": "",
					"type": "uint256"
				}
			],
			"stateMutability": "view",
			"type": "function"
		},
		{
			"inputs": [],
			"name": "baseTokenURI",
			"outputs": [
				{
					"internalType": "string",
					"name": "",
					"type": "string"
				}
			],
			"stateMutability": "view",
			"type": "function"
		},
		{
			"inputs": [],
			"name": "flipGetSubscriptionTokenState",
			"outputs": [],
			"stateMutability": "nonpayable",
			"type": "function"
		},
		{
			"inputs": [],
			"name": "flipSubscriptionNativeState",
			"outputs": [],
			"stateMutability": "nonpayable",
			"type": "function"
		},
		{
			"inputs": [],
			"name": "flipSubscriptionState",
			"outputs": [],
			"stateMutability": "nonpayable",
			"type": "function"
		},
		{
			"inputs": [
				{
					"internalType": "uint256",
					"name": "tokenId",
					"type": "uint256"
				}
			],
			"name": "getApproved",
			"outputs": [
				{
					"internalType": "address",
					"name": "",
					"type": "address"
				}
			],
			"stateMutability": "view",
			"type": "function"
		},
		{
			"inputs": [],
			"name": "getSubscriptionToken",
			"outputs": [],
			"stateMutability": "nonpayable",
			"type": "function"
		},
		{
			"inputs": [],
			"name": "getSubscriptionTokenIsActive",
			"outputs": [
				{
					"internalType": "bool",
					"name": "",
					"type": "bool"
				}
			],
			"stateMutability": "view",
			"type": "function"
		},
		{
			"inputs": [
				{
					"internalType": "address",
					"name": "owner",
					"type": "address"
				},
				{
					"internalType": "address",
					"name": "operator",
					"type": "address"
				}
			],
			"name": "isApprovedForAll",
			"outputs": [
				{
					"internalType": "bool",
					"name": "",
					"type": "bool"
				}
			],
			"stateMutability": "view",
			"type": "function"
		},
		{
			"inputs": [],
			"name": "maxMonthlySubs",
			"outputs": [
				{
					"internalType": "uint256",
					"name": "",
					"type": "uint256"
				}
			],
			"stateMutability": "view",
			"type": "function"
		},
		{
			"inputs": [],
			"name": "name",
			"outputs": [
				{
					"internalType": "string",
					"name": "",
					"type": "string"
				}
			],
			"stateMutability": "view",
			"type": "function"
		},
		{
			"inputs": [],
			"name": "owner",
			"outputs": [
				{
					"internalType": "address",
					"name": "",
					"type": "address"
				}
			],
			"stateMutability": "view",
			"type": "function"
		},
		{
			"inputs": [
				{
					"internalType": "uint256",
					"name": "tokenId",
					"type": "uint256"
				}
			],
			"name": "ownerOf",
			"outputs": [
				{
					"internalType": "address",
					"name": "",
					"type": "address"
				}
			],
			"stateMutability": "view",
			"type": "function"
		},
		{
			"inputs": [],
			"name": "renounceOwnership",
			"outputs": [],
			"stateMutability": "nonpayable",
			"type": "function"
		},
		{
			"inputs": [
				{
					"internalType": "uint256",
					"name": "tokenId",
					"type": "uint256"
				}
			],
			"name": "revoke",
			"outputs": [],
			"stateMutability": "nonpayable",
			"type": "function"
		},
		{
			"inputs": [
				{
					"internalType": "address",
					"name": "from",
					"type": "address"
				},
				{
					"internalType": "address",
					"name": "to",
					"type": "address"
				},
				{
					"internalType": "uint256",
					"name": "tokenId",
					"type": "uint256"
				}
			],
			"name": "safeTransferFrom",
			"outputs": [],
			"stateMutability": "nonpayable",
			"type": "function"
		},
		{
			"inputs": [
				{
					"internalType": "address",
					"name": "from",
					"type": "address"
				},
				{
					"internalType": "address",
					"name": "to",
					"type": "address"
				},
				{
					"internalType": "uint256",
					"name": "tokenId",
					"type": "uint256"
				},
				{
					"internalType": "bytes",
					"name": "data",
					"type": "bytes"
				}
			],
			"name": "safeTransferFrom",
			"outputs": [],
			"stateMutability": "nonpayable",
			"type": "function"
		},
		{
			"inputs": [
				{
					"internalType": "address",
					"name": "operator",
					"type": "address"
				},
				{
					"internalType": "bool",
					"name": "approved",
					"type": "bool"
				}
			],
			"name": "setApprovalForAll",
			"outputs": [],
			"stateMutability": "nonpayable",
			"type": "function"
		},
		{
			"inputs": [
				{
					"internalType": "string",
					"name": "newuri",
					"type": "string"
				}
			],
			"name": "setBaseTokenURI",
			"outputs": [],
			"stateMutability": "nonpayable",
			"type": "function"
		},
		{
			"inputs": [
				{
					"internalType": "uint256",
					"name": "newMaxMonthlySubs",
					"type": "uint256"
				}
			],
			"name": "setMaxMonthlySubs",
			"outputs": [],
			"stateMutability": "nonpayable",
			"type": "function"
		},
		{
			"inputs": [
				{
					"internalType": "address payable",
					"name": "newTreasuryAddress",
					"type": "address"
				}
			],
			"name": "setPayAddress",
			"outputs": [],
			"stateMutability": "nonpayable",
			"type": "function"
		},
		{
			"inputs": [
				{
					"internalType": "uint256",
					"name": "newSubscriptionFee",
					"type": "uint256"
				}
			],
			"name": "setSubscriptionFee",
			"outputs": [],
			"stateMutability": "nonpayable",
			"type": "function"
		},
		{
			"inputs": [
				{
					"internalType": "uint256",
					"name": "newSubscriptionFeeNative",
					"type": "uint256"
				}
			],
			"name": "setSubscriptionFeeNative",
			"outputs": [],
			"stateMutability": "nonpayable",
			"type": "function"
		},
		{
			"inputs": [
				{
					"internalType": "uint256",
					"name": "tokenId",
					"type": "uint256"
				},
				{
					"internalType": "address",
					"name": "user",
					"type": "address"
				},
				{
					"internalType": "uint64",
					"name": "expires",
					"type": "uint64"
				}
			],
			"name": "setUser",
			"outputs": [],
			"stateMutability": "nonpayable",
			"type": "function"
		},
		{
			"inputs": [
				{
					"internalType": "uint256",
					"name": "tokenId",
					"type": "uint256"
				},
				{
					"internalType": "address",
					"name": "user",
					"type": "address"
				},
				{
					"internalType": "uint64",
					"name": "expires",
					"type": "uint64"
				}
			],
			"name": "setUserNative",
			"outputs": [],
			"stateMutability": "payable",
			"type": "function"
		},
		{
			"inputs": [
				{
					"internalType": "address",
					"name": "",
					"type": "address"
				}
			],
			"name": "subscribed",
			"outputs": [
				{
					"internalType": "bool",
					"name": "",
					"type": "bool"
				}
			],
			"stateMutability": "view",
			"type": "function"
		},
		{
			"inputs": [],
			"name": "subscriptionFee",
			"outputs": [
				{
					"internalType": "uint256",
					"name": "",
					"type": "uint256"
				}
			],
			"stateMutability": "view",
			"type": "function"
		},
		{
			"inputs": [],
			"name": "subscriptionFeeNative",
			"outputs": [
				{
					"internalType": "uint256",
					"name": "",
					"type": "uint256"
				}
			],
			"stateMutability": "view",
			"type": "function"
		},
		{
			"inputs": [],
			"name": "subscriptionIsActive",
			"outputs": [
				{
					"internalType": "bool",
					"name": "",
					"type": "bool"
				}
			],
			"stateMutability": "view",
			"type": "function"
		},
		{
			"inputs": [],
			"name": "subscriptionNativeIsActive",
			"outputs": [
				{
					"internalType": "bool",
					"name": "",
					"type": "bool"
				}
			],
			"stateMutability": "view",
			"type": "function"
		},
		{
			"inputs": [
				{
					"internalType": "bytes4",
					"name": "interfaceId",
					"type": "bytes4"
				}
			],
			"name": "supportsInterface",
			"outputs": [
				{
					"internalType": "bool",
					"name": "",
					"type": "bool"
				}
			],
			"stateMutability": "view",
			"type": "function"
		},
		{
			"inputs": [],
			"name": "symbol",
			"outputs": [
				{
					"internalType": "string",
					"name": "",
					"type": "string"
				}
			],
			"stateMutability": "view",
			"type": "function"
		},
		{
			"inputs": [
				{
					"internalType": "uint256",
					"name": "tokenId",
					"type": "uint256"
				}
			],
			"name": "tokenURI",
			"outputs": [
				{
					"internalType": "string",
					"name": "",
					"type": "string"
				}
			],
			"stateMutability": "view",
			"type": "function"
		},
		{
			"inputs": [],
			"name": "totalSupply",
			"outputs": [
				{
					"internalType": "uint256",
					"name": "",
					"type": "uint256"
				}
			],
			"stateMutability": "view",
			"type": "function"
		},
		{
			"inputs": [
				{
					"internalType": "address",
					"name": "from",
					"type": "address"
				},
				{
					"internalType": "address",
					"name": "to",
					"type": "address"
				},
				{
					"internalType": "uint256",
					"name": "tokenId",
					"type": "uint256"
				}
			],
			"name": "transferFrom",
			"outputs": [],
			"stateMutability": "nonpayable",
			"type": "function"
		},
		{
			"inputs": [
				{
					"internalType": "address",
					"name": "newOwner",
					"type": "address"
				}
			],
			"name": "transferOwnership",
			"outputs": [],
			"stateMutability": "nonpayable",
			"type": "function"
		},
		{
			"inputs": [],
			"name": "treasury",
			"outputs": [
				{
					"internalType": "address payable",
					"name": "",
					"type": "address"
				}
			],
			"stateMutability": "view",
			"type": "function"
		},
		{
			"inputs": [
				{
					"internalType": "uint256",
					"name": "tokenId",
					"type": "uint256"
				}
			],
			"name": "userExpires",
			"outputs": [
				{
					"internalType": "uint256",
					"name": "",
					"type": "uint256"
				}
			],
			"stateMutability": "view",
			"type": "function"
		},
		{
			"inputs": [
				{
					"internalType": "uint256",
					"name": "tokenId",
					"type": "uint256"
				}
			],
			"name": "userOf",
			"outputs": [
				{
					"internalType": "address",
					"name": "",
					"type": "address"
				}
			],
			"stateMutability": "view",
			"type": "function"
		},
		{
			"inputs": [],
			"name": "withdraw",
			"outputs": [],
			"stateMutability": "nonpayable",
			"type": "function"
		},
		{
			"inputs": [],
			"name": "withdrawERC20",
			"outputs": [],
			"stateMutability": "nonpayable",
			"type": "function"
		}
	],
	"bytecode": "0x608060405273a0b86991c6218b36c1d19d4a2e9eb0ce3606eb48600860006101000a81548173ffffffffffffffffffffffffffffffffffffffff021916908373ffffffffffffffffffffffffffffffffffffffff1602179055506000600860146101000a81548160ff0219169083151502179055506000600860156101000a81548160ff0219169083151502179055506000600860166101000a81548160ff021916908315150217905550600c600955348015620000bc57600080fd5b506040518060400160405280601a81526020017f437270746f2056696c6c61676520536f6c736372697074696f6e0000000000008152506040518060400160405280600381526020017f435653000000000000000000000000000000000000000000000000000000000081525081600090805190602001906200014192919062000259565b5080600190805190602001906200015a92919062000259565b5050506200017d620001716200018b60201b60201c565b6200019360201b60201c565b60016007819055506200036e565b600033905090565b6000600660009054906101000a900473ffffffffffffffffffffffffffffffffffffffff16905081600660006101000a81548173ffffffffffffffffffffffffffffffffffffffff021916908373ffffffffffffffffffffffffffffffffffffffff1602179055508173ffffffffffffffffffffffffffffffffffffffff168173ffffffffffffffffffffffffffffffffffffffff167f8be0079c531659141344cd1fd0a4f28419497f9722a3daafe3b4186f6b6457e060405160405180910390a35050565b828054620002679062000309565b90600052602060002090601f0160209004810192826200028b5760008555620002d7565b82601f10620002a657805160ff1916838001178555620002d7565b82800160010185558215620002d7579182015b82811115620002d6578251825591602001919060010190620002b9565b5b509050620002e69190620002ea565b5090565b5b8082111562000305576000816000905550600101620002eb565b5090565b600060028204905060018216806200032257607f821691505b602082108114156200033957620003386200033f565b5b50919050565b7f4e487b7100000000000000000000000000000000000000000000000000000000600052602260045260246000fd5b6154f8806200037e6000396000f3fe6080604052600436106102515760003560e01c806370a0823111610139578063b88d4fde116100b6578063d547cfb71161007a578063d547cfb714610841578063dadfcc2c1461086c578063e030565e14610897578063e985e9c5146108c0578063ec8d3f67146108fd578063f2fde38b1461092857610251565b8063b88d4fde14610736578063c2f1f14a1461075f578063c657d33f1461079c578063c87b56dd146107c7578063d18d69af1461080457610251565b80638fc88c48116100fd5780638fc88c481461067757806395d89b41146106b457806398848ab4146106df578063a22cb465146106f6578063ad567b7d1461071f57610251565b806370a08231146105b1578063715018a6146105ee578063735de366146106055780638aed64cd146106305780638da5cb5b1461064c57610251565b80632cda77a4116101d257806342842e0e1161019657806342842e0e146104b7578063533674bb146104e0578063560a4ac2146104f757806361d027b3146105205780636352211e1461054b5780636ac849561461058857610251565b80632cda77a41461040c5780632ed6d5e81461043557806330176e131461044c578063348e5c88146104755780633ccfd60b146104a057610251565b8063095ea7b311610219578063095ea7b31461033b5780630aa0a1751461036457806318160ddd1461038f57806320c5429b146103ba57806323b872dd146103e357610251565b8063019fdbca1461025657806301ffc9a71461026d578063067e7ea4146102aa57806306fdde03146102d3578063081812fc146102fe575b600080fd5b34801561026257600080fd5b5061026b610951565b005b34801561027957600080fd5b50610294600480360381019061028f9190613d6f565b610985565b6040516102a1919061452c565b60405180910390f35b3480156102b657600080fd5b506102d160048036038101906102cc9190613e02565b6109ff565b005b3480156102df57600080fd5b506102e8610a11565b6040516102f59190614547565b60405180910390f35b34801561030a57600080fd5b5061032560048036038101906103209190613e02565b610aa3565b6040516103329190614421565b60405180910390f35b34801561034757600080fd5b50610362600480360381019061035d9190613d0a565b610ae9565b005b34801561037057600080fd5b50610379610c01565b6040516103869190614909565b60405180910390f35b34801561039b57600080fd5b506103a4610c07565b6040516103b19190614909565b60405180910390f35b3480156103c657600080fd5b506103e160048036038101906103dc9190613e02565b610c0d565b005b3480156103ef57600080fd5b5061040a60048036038101906104059190613c04565b610c71565b005b34801561041857600080fd5b50610433600480360381019061042e9190613b9f565b610cd1565b005b34801561044157600080fd5b5061044a610de2565b005b34801561045857600080fd5b50610473600480360381019061046e9190613dc1565b611173565b005b34801561048157600080fd5b5061048a611195565b6040516104979190614909565b60405180910390f35b3480156104ac57600080fd5b506104b561119b565b005b3480156104c357600080fd5b506104de60048036038101906104d99190613c04565b611415565b005b3480156104ec57600080fd5b506104f5611435565b005b34801561050357600080fd5b5061051e60048036038101906105199190613e02565b611469565b005b34801561052c57600080fd5b5061053561147b565b604051610542919061443c565b60405180910390f35b34801561055757600080fd5b50610572600480360381019061056d9190613e02565b6114a1565b60405161057f9190614421565b60405180910390f35b34801561059457600080fd5b506105af60048036038101906105aa9190613e02565b611528565b005b3480156105bd57600080fd5b506105d860048036038101906105d39190613b76565b61153a565b6040516105e59190614909565b60405180910390f35b3480156105fa57600080fd5b506106036115f2565b005b34801561061157600080fd5b5061061a611606565b604051610627919061452c565b60405180910390f35b61064a60048036038101906106459190613e54565b611619565b005b34801561065857600080fd5b5061066161195d565b60405161066e9190614421565b60405180910390f35b34801561068357600080fd5b5061069e60048036038101906106999190613e02565b611987565b6040516106ab9190614909565b60405180910390f35b3480156106c057600080fd5b506106c9611a22565b6040516106d69190614547565b60405180910390f35b3480156106eb57600080fd5b506106f4611ab4565b005b34801561070257600080fd5b5061071d60048036038101906107189190613cce565b611c94565b005b34801561072b57600080fd5b50610734611caa565b005b34801561074257600080fd5b5061075d60048036038101906107589190613c53565b611cde565b005b34801561076b57600080fd5b5061078660048036038101906107819190613e02565b611d40565b6040516107939190614421565b60405180910390f35b3480156107a857600080fd5b506107b1611dc5565b6040516107be9190614909565b60405180910390f35b3480156107d357600080fd5b506107ee60048036038101906107e99190613e02565b611dcb565b6040516107fb9190614547565b60405180910390f35b34801561081057600080fd5b5061082b60048036038101906108269190613b76565b611e53565b604051610838919061452c565b60405180910390f35b34801561084d57600080fd5b50610856611e73565b6040516108639190614547565b60405180910390f35b34801561087857600080fd5b50610881611f01565b60405161088e919061452c565b60405180910390f35b3480156108a357600080fd5b506108be60048036038101906108b99190613e54565b611f14565b005b3480156108cc57600080fd5b506108e760048036038101906108e29190613bc8565b612318565b6040516108f4919061452c565b60405180910390f35b34801561090957600080fd5b506109126123ac565b60405161091f919061452c565b60405180910390f35b34801561093457600080fd5b5061094f600480360381019061094a9190613b76565b6123bf565b005b610959612443565b600860159054906101000a900460ff1615600860156101000a81548160ff021916908315150217905550565b60007fad092b5c000000000000000000000000000000000000000000000000000000007bffffffffffffffffffffffffffffffffffffffffffffffffffffffff1916827bffffffffffffffffffffffffffffffffffffffffffffffffffffffff191614806109f857506109f7826124c1565b5b9050919050565b610a07612443565b8060098190555050565b606060008054610a2090614cbb565b80601f0160208091040260200160405190810160405280929190818152602001828054610a4c90614cbb565b8015610a995780601f10610a6e57610100808354040283529160200191610a99565b820191906000526020600020905b815481529060010190602001808311610a7c57829003601f168201915b5050505050905090565b6000610aae826125a3565b6004600083815260200190815260200160002060009054906101000a900473ffffffffffffffffffffffffffffffffffffffff169050919050565b6000610af4826114a1565b90508073ffffffffffffffffffffffffffffffffffffffff168373ffffffffffffffffffffffffffffffffffffffff161415610b65576040517f08c379a0000000000000000000000000000000000000000000000000000000008152600401610b5c906147e9565b60405180910390fd5b8073ffffffffffffffffffffffffffffffffffffffff16610b846125ee565b73ffffffffffffffffffffffffffffffffffffffff161480610bb35750610bb281610bad6125ee565b612318565b5b610bf2576040517f08c379a0000000000000000000000000000000000000000000000000000000008152600401610be990614829565b60405180910390fd5b610bfc83836125f6565b505050565b600a5481565b600c5481565b610c16816126af565b6000600f60003373ffffffffffffffffffffffffffffffffffffffff1673ffffffffffffffffffffffffffffffffffffffff16815260200190815260200160002060006101000a81548160ff02191690831515021790555050565b610c82610c7c6125ee565b826127fd565b610cc1576040517f08c379a0000000000000000000000000000000000000000000000000000000008152600401610cb890614589565b60405180910390fd5b610ccc838383612892565b505050565b600e60009054906101000a900473ffffffffffffffffffffffffffffffffffffffff1673ffffffffffffffffffffffffffffffffffffffff163373ffffffffffffffffffffffffffffffffffffffff161480610d5f5750610d3061195d565b73ffffffffffffffffffffffffffffffffffffffff163373ffffffffffffffffffffffffffffffffffffffff16145b610d9e576040517f08c379a0000000000000000000000000000000000000000000000000000000008152600401610d9590614689565b60405180910390fd5b80600e60006101000a81548173ffffffffffffffffffffffffffffffffffffffff021916908373ffffffffffffffffffffffffffffffffffffffff16021790555050565b610dea612b8c565b600e60009054906101000a900473ffffffffffffffffffffffffffffffffffffffff1673ffffffffffffffffffffffffffffffffffffffff163373ffffffffffffffffffffffffffffffffffffffff161480610e785750610e4961195d565b73ffffffffffffffffffffffffffffffffffffffff163373ffffffffffffffffffffffffffffffffffffffff16145b610eb7576040517f08c379a0000000000000000000000000000000000000000000000000000000008152600401610eae90614689565b60405180910390fd5b6000600860009054906101000a900473ffffffffffffffffffffffffffffffffffffffff16905060008173ffffffffffffffffffffffffffffffffffffffff166370a08231306040518263ffffffff1660e01b8152600401610f199190614421565b60206040518083038186803b158015610f3157600080fd5b505afa158015610f45573d6000803e3d6000fd5b505050506040513d601f19601f82011682018060405250810190610f699190613e2b565b90506000605a606483610f7c9190614aa8565b610f869190614ad9565b905060008183610f969190614b75565b905060008473ffffffffffffffffffffffffffffffffffffffff1663a9059cbb600e60009054906101000a900473ffffffffffffffffffffffffffffffffffffffff16856040518363ffffffff1660e01b8152600401610ff7929190614457565b602060405180830381600087803b15801561101157600080fd5b505af1158015611025573d6000803e3d6000fd5b505050506040513d601f19601f820116820180604052508101906110499190613d46565b905060008573ffffffffffffffffffffffffffffffffffffffff1663a9059cbb61107161195d565b856040518363ffffffff1660e01b815260040161108f929190614503565b602060405180830381600087803b1580156110a957600080fd5b505af11580156110bd573d6000803e3d6000fd5b505050506040513d601f19601f820116820180604052508101906110e19190613d46565b905081611123576040517f08c379a000000000000000000000000000000000000000000000000000000000815260040161111a90614669565b60405180910390fd5b80611163576040517f08c379a000000000000000000000000000000000000000000000000000000000815260040161115a90614709565b60405180910390fd5b505050505050611171612bdc565b565b61117b612443565b80600d9080519060200190611191929190613946565b5050565b600b5481565b6111a3612b8c565b600e60009054906101000a900473ffffffffffffffffffffffffffffffffffffffff1673ffffffffffffffffffffffffffffffffffffffff163373ffffffffffffffffffffffffffffffffffffffff161480611231575061120261195d565b73ffffffffffffffffffffffffffffffffffffffff163373ffffffffffffffffffffffffffffffffffffffff16145b611270576040517f08c379a000000000000000000000000000000000000000000000000000000000815260040161126790614689565b60405180910390fd5b6000600e60009054906101000a900473ffffffffffffffffffffffffffffffffffffffff1673ffffffffffffffffffffffffffffffffffffffff16605a6064476112ba9190614aa8565b6112c49190614ad9565b6040516112d09061440c565b60006040518083038185875af1925050503d806000811461130d576040519150601f19603f3d011682016040523d82523d6000602084013e611312565b606091505b50509050600061132061195d565b73ffffffffffffffffffffffffffffffffffffffff16476040516113439061440c565b60006040518083038185875af1925050503d8060008114611380576040519150601f19603f3d011682016040523d82523d6000602084013e611385565b606091505b50509050816113c9576040517f08c379a00000000000000000000000000000000000000000000000000000000081526004016113c090614669565b60405180910390fd5b80611409576040517f08c379a000000000000000000000000000000000000000000000000000000000815260040161140090614709565b60405180910390fd5b5050611413612bdc565b565b61143083838360405180602001604052806000815250611cde565b505050565b61143d612443565b600860169054906101000a900460ff1615600860166101000a81548160ff021916908315150217905550565b611471612443565b80600b8190555050565b600e60009054906101000a900473ffffffffffffffffffffffffffffffffffffffff1681565b6000806114ad83612be6565b9050600073ffffffffffffffffffffffffffffffffffffffff168173ffffffffffffffffffffffffffffffffffffffff16141561151f576040517f08c379a0000000000000000000000000000000000000000000000000000000008152600401611516906147c9565b60405180910390fd5b80915050919050565b611530612443565b80600a8190555050565b60008073ffffffffffffffffffffffffffffffffffffffff168273ffffffffffffffffffffffffffffffffffffffff1614156115ab576040517f08c379a00000000000000000000000000000000000000000000000000000000081526004016115a2906146a9565b60405180910390fd5b600360008373ffffffffffffffffffffffffffffffffffffffff1673ffffffffffffffffffffffffffffffffffffffff168152602001908152602001600020549050919050565b6115fa612443565b6116046000612c23565b565b600860149054906101000a900460ff1681565b61162333846127fd565b611662576040517f08c379a0000000000000000000000000000000000000000000000000000000008152600401611659906148e9565b60405180910390fd5b600860159054906101000a900460ff166116b1576040517f08c379a00000000000000000000000000000000000000000000000000000000081526004016116a8906148a9565b60405180910390fd5b600f60003373ffffffffffffffffffffffffffffffffffffffff1673ffffffffffffffffffffffffffffffffffffffff16815260200190815260200160002060009054906101000a900460ff1661173d576040517f08c379a000000000000000000000000000000000000000000000000000000000815260040161173490614769565b60405180910390fd5b6009548167ffffffffffffffff16111561178c576040517f08c379a0000000000000000000000000000000000000000000000000000000008152600401611783906147a9565b60405180910390fd5b34600b548267ffffffffffffffff166117a59190614ad9565b146117e5576040517f08c379a00000000000000000000000000000000000000000000000000000000081526004016117dc906146c9565b60405180910390fd5b600062278d00826117f69190614b33565b9050600042905060006010600087815260200190815260200160002090508167ffffffffffffffff168160000160149054906101000a900467ffffffffffffffff1667ffffffffffffffff1610611882576040517f08c379a000000000000000000000000000000000000000000000000000000000815260040161187990614849565b60405180910390fd5b848160000160006101000a81548173ffffffffffffffffffffffffffffffffffffffff021916908373ffffffffffffffffffffffffffffffffffffffff16021790555081836118d19190614a6a565b8160000160146101000a81548167ffffffffffffffff021916908367ffffffffffffffff1602179055508473ffffffffffffffffffffffffffffffffffffffff16867f4e06b4e7000e659094299b3533b47b6aa8ad048e95e872d23d1f4ee55af89cfe84866119409190614a6a565b60405161194d9190614924565b60405180910390a3505050505050565b6000600660009054906101000a900473ffffffffffffffffffffffffffffffffffffffff16905090565b6000426010600084815260200190815260200160002060000160149054906101000a900467ffffffffffffffff1667ffffffffffffffff1610611a00576010600083815260200190815260200160002060000160149054906101000a900467ffffffffffffffff1667ffffffffffffffff169050611a1d565b780fee50b7025c36a0802f236d04753d5b48e7ffffffffffffff90505b919050565b606060018054611a3190614cbb565b80601f0160208091040260200160405190810160405280929190818152602001828054611a5d90614cbb565b8015611aaa5780601f10611a7f57610100808354040283529160200191611aaa565b820191906000526020600020905b815481529060010190602001808311611a8d57829003601f168201915b5050505050905090565b611abc612b8c565b3273ffffffffffffffffffffffffffffffffffffffff163373ffffffffffffffffffffffffffffffffffffffff1614611b2a576040517f08c379a0000000000000000000000000000000000000000000000000000000008152600401611b2190614569565b60405180910390fd5b600860169054906101000a900460ff16611b79576040517f08c379a0000000000000000000000000000000000000000000000000000000008152600401611b7090614809565b60405180910390fd5b600f60003373ffffffffffffffffffffffffffffffffffffffff1673ffffffffffffffffffffffffffffffffffffffff16815260200190815260200160002060009054906101000a900460ff1615611c06576040517f08c379a0000000000000000000000000000000000000000000000000000000008152600401611bfd906146e9565b60405180910390fd5b6000600c549050611c173382612ce9565b6001600c6000828254611c2a9190614a14565b925050819055506001600f60003373ffffffffffffffffffffffffffffffffffffffff1673ffffffffffffffffffffffffffffffffffffffff16815260200190815260200160002060006101000a81548160ff02191690831515021790555050611c92612bdc565b565b611ca6611c9f6125ee565b8383612d07565b5050565b611cb2612443565b600860149054906101000a900460ff1615600860146101000a81548160ff021916908315150217905550565b611cef611ce96125ee565b836127fd565b611d2e576040517f08c379a0000000000000000000000000000000000000000000000000000000008152600401611d2590614589565b60405180910390fd5b611d3a84848484612e74565b50505050565b6000426010600084815260200190815260200160002060000160149054906101000a900467ffffffffffffffff1667ffffffffffffffff1610611dbb576010600083815260200190815260200160002060000160009054906101000a900473ffffffffffffffffffffffffffffffffffffffff169050611dc0565b600090505b919050565b60095481565b6060611dd682612ed0565b611e15576040517f08c379a0000000000000000000000000000000000000000000000000000000008152600401611e0c90614749565b60405180910390fd5b6000611e1f612f11565b905080611e2b84612fa3565b604051602001611e3c9291906143dd565b604051602081830303815290604052915050919050565b600f6020528060005260406000206000915054906101000a900460ff1681565b600d8054611e8090614cbb565b80601f0160208091040260200160405190810160405280929190818152602001828054611eac90614cbb565b8015611ef95780601f10611ece57610100808354040283529160200191611ef9565b820191906000526020600020905b815481529060010190602001808311611edc57829003601f168201915b505050505081565b600860159054906101000a900460ff1681565b611f1e33846127fd565b611f5d576040517f08c379a0000000000000000000000000000000000000000000000000000000008152600401611f54906148e9565b60405180910390fd5b600860149054906101000a900460ff16611fac576040517f08c379a0000000000000000000000000000000000000000000000000000000008152600401611fa390614809565b60405180910390fd5b600f60003373ffffffffffffffffffffffffffffffffffffffff1673ffffffffffffffffffffffffffffffffffffffff16815260200190815260200160002060009054906101000a900460ff16612038576040517f08c379a000000000000000000000000000000000000000000000000000000000815260040161202f90614769565b60405180910390fd5b6009548167ffffffffffffffff161115612087576040517f08c379a000000000000000000000000000000000000000000000000000000000815260040161207e906147a9565b60405180910390fd5b6000600860009054906101000a900473ffffffffffffffffffffffffffffffffffffffff16905060008267ffffffffffffffff16600a546120c89190614ad9565b905060008273ffffffffffffffffffffffffffffffffffffffff166323b872dd3330856040518463ffffffff1660e01b815260040161210993929190614480565b602060405180830381600087803b15801561212357600080fd5b505af1158015612137573d6000803e3d6000fd5b505050506040513d601f19601f8201168201806040525081019061215b9190613d46565b90508061219d576040517f08c379a0000000000000000000000000000000000000000000000000000000008152600401612194906148c9565b60405180910390fd5b600062278d00856121ae9190614b33565b905060004290506000601060008a815260200190815260200160002090508167ffffffffffffffff168160000160149054906101000a900467ffffffffffffffff1667ffffffffffffffff161061223a576040517f08c379a000000000000000000000000000000000000000000000000000000000815260040161223190614849565b60405180910390fd5b878160000160006101000a81548173ffffffffffffffffffffffffffffffffffffffff021916908373ffffffffffffffffffffffffffffffffffffffff16021790555081836122899190614a6a565b8160000160146101000a81548167ffffffffffffffff021916908367ffffffffffffffff1602179055508773ffffffffffffffffffffffffffffffffffffffff16897f4e06b4e7000e659094299b3533b47b6aa8ad048e95e872d23d1f4ee55af89cfe84866122f89190614a6a565b6040516123059190614924565b60405180910390a3505050505050505050565b6000600560008473ffffffffffffffffffffffffffffffffffffffff1673ffffffffffffffffffffffffffffffffffffffff16815260200190815260200160002060008373ffffffffffffffffffffffffffffffffffffffff1673ffffffffffffffffffffffffffffffffffffffff16815260200190815260200160002060009054906101000a900460ff16905092915050565b600860169054906101000a900460ff1681565b6123c7612443565b600073ffffffffffffffffffffffffffffffffffffffff168173ffffffffffffffffffffffffffffffffffffffff161415612437576040517f08c379a000000000000000000000000000000000000000000000000000000000815260040161242e906145c9565b60405180910390fd5b61244081612c23565b50565b61244b6125ee565b73ffffffffffffffffffffffffffffffffffffffff1661246961195d565b73ffffffffffffffffffffffffffffffffffffffff16146124bf576040517f08c379a00000000000000000000000000000000000000000000000000000000081526004016124b690614789565b60405180910390fd5b565b60007f80ac58cd000000000000000000000000000000000000000000000000000000007bffffffffffffffffffffffffffffffffffffffffffffffffffffffff1916827bffffffffffffffffffffffffffffffffffffffffffffffffffffffff1916148061258c57507f5b5e139f000000000000000000000000000000000000000000000000000000007bffffffffffffffffffffffffffffffffffffffffffffffffffffffff1916827bffffffffffffffffffffffffffffffffffffffffffffffffffffffff1916145b8061259c575061259b826130c7565b5b9050919050565b6125ac81612ed0565b6125eb576040517f08c379a00000000000000000000000000000000000000000000000000000000081526004016125e2906147c9565b60405180910390fd5b50565b600033905090565b816004600083815260200190815260200160002060006101000a81548173ffffffffffffffffffffffffffffffffffffffff021916908373ffffffffffffffffffffffffffffffffffffffff160217905550808273ffffffffffffffffffffffffffffffffffffffff16612669836114a1565b73ffffffffffffffffffffffffffffffffffffffff167f8c5be1e5ebec7d5bd14f71427d1e84f3dd0314c0f7b2291e5b200ac8c7c3b92560405160405180910390a45050565b60006126ba826114a1565b90506126ca816000846001613131565b6126d3826114a1565b90506004600083815260200190815260200160002060006101000a81549073ffffffffffffffffffffffffffffffffffffffff02191690556001600360008373ffffffffffffffffffffffffffffffffffffffff1673ffffffffffffffffffffffffffffffffffffffff168152602001908152602001600020600082825403925050819055506002600083815260200190815260200160002060006101000a81549073ffffffffffffffffffffffffffffffffffffffff021916905581600073ffffffffffffffffffffffffffffffffffffffff168273ffffffffffffffffffffffffffffffffffffffff167fddf252ad1be2c89b69c2b068fc378daa952ba7f163c4a11628f55a4df523b3ef60405160405180910390a46127f98160008460016131dd565b5050565b600080612809836114a1565b90508073ffffffffffffffffffffffffffffffffffffffff168473ffffffffffffffffffffffffffffffffffffffff16148061284b575061284a8185612318565b5b8061288957508373ffffffffffffffffffffffffffffffffffffffff1661287184610aa3565b73ffffffffffffffffffffffffffffffffffffffff16145b91505092915050565b8273ffffffffffffffffffffffffffffffffffffffff166128b2826114a1565b73ffffffffffffffffffffffffffffffffffffffff1614612908576040517f08c379a00000000000000000000000000000000000000000000000000000000081526004016128ff906145e9565b60405180910390fd5b600073ffffffffffffffffffffffffffffffffffffffff168273ffffffffffffffffffffffffffffffffffffffff161415612978576040517f08c379a000000000000000000000000000000000000000000000000000000000815260040161296f90614629565b60405180910390fd5b6129858383836001613131565b8273ffffffffffffffffffffffffffffffffffffffff166129a5826114a1565b73ffffffffffffffffffffffffffffffffffffffff16146129fb576040517f08c379a00000000000000000000000000000000000000000000000000000000081526004016129f2906145e9565b60405180910390fd5b6004600082815260200190815260200160002060006101000a81549073ffffffffffffffffffffffffffffffffffffffff02191690556001600360008573ffffffffffffffffffffffffffffffffffffffff1673ffffffffffffffffffffffffffffffffffffffff168152602001908152602001600020600082825403925050819055506001600360008473ffffffffffffffffffffffffffffffffffffffff1673ffffffffffffffffffffffffffffffffffffffff16815260200190815260200160002060008282540192505081905550816002600083815260200190815260200160002060006101000a81548173ffffffffffffffffffffffffffffffffffffffff021916908373ffffffffffffffffffffffffffffffffffffffff160217905550808273ffffffffffffffffffffffffffffffffffffffff168473ffffffffffffffffffffffffffffffffffffffff167fddf252ad1be2c89b69c2b068fc378daa952ba7f163c4a11628f55a4df523b3ef60405160405180910390a4612b8783838360016131dd565b505050565b60026007541415612bd2576040517f08c379a0000000000000000000000000000000000000000000000000000000008152600401612bc990614889565b60405180910390fd5b6002600781905550565b6001600781905550565b60006002600083815260200190815260200160002060009054906101000a900473ffffffffffffffffffffffffffffffffffffffff169050919050565b6000600660009054906101000a900473ffffffffffffffffffffffffffffffffffffffff16905081600660006101000a81548173ffffffffffffffffffffffffffffffffffffffff021916908373ffffffffffffffffffffffffffffffffffffffff1602179055508173ffffffffffffffffffffffffffffffffffffffff168173ffffffffffffffffffffffffffffffffffffffff167f8be0079c531659141344cd1fd0a4f28419497f9722a3daafe3b4186f6b6457e060405160405180910390a35050565b612d038282604051806020016040528060008152506132dc565b5050565b8173ffffffffffffffffffffffffffffffffffffffff168373ffffffffffffffffffffffffffffffffffffffff161415612d76576040517f08c379a0000000000000000000000000000000000000000000000000000000008152600401612d6d90614649565b60405180910390fd5b80600560008573ffffffffffffffffffffffffffffffffffffffff1673ffffffffffffffffffffffffffffffffffffffff16815260200190815260200160002060008473ffffffffffffffffffffffffffffffffffffffff1673ffffffffffffffffffffffffffffffffffffffff16815260200190815260200160002060006101000a81548160ff0219169083151502179055508173ffffffffffffffffffffffffffffffffffffffff168373ffffffffffffffffffffffffffffffffffffffff167f17307eab39ab6107e8899845ad3d59bd9653f200f220920489ca2b5937696c3183604051612e67919061452c565b60405180910390a3505050565b612e7f848484612892565b612e8b84848484613337565b612eca576040517f08c379a0000000000000000000000000000000000000000000000000000000008152600401612ec1906145a9565b60405180910390fd5b50505050565b60008073ffffffffffffffffffffffffffffffffffffffff16612ef283612be6565b73ffffffffffffffffffffffffffffffffffffffff1614159050919050565b6060600d8054612f2090614cbb565b80601f0160208091040260200160405190810160405280929190818152602001828054612f4c90614cbb565b8015612f995780601f10612f6e57610100808354040283529160200191612f99565b820191906000526020600020905b815481529060010190602001808311612f7c57829003601f168201915b5050505050905090565b606060006001612fb2846134ce565b01905060008167ffffffffffffffff811115612ff7577f4e487b7100000000000000000000000000000000000000000000000000000000600052604160045260246000fd5b6040519080825280601f01601f1916602001820160405280156130295781602001600182028036833780820191505090505b509050600082602001820190505b6001156130bc578080600190039150507f3031323334353637383961626364656600000000000000000000000000000000600a86061a8153600a85816130a6577f4e487b7100000000000000000000000000000000000000000000000000000000600052601260045260246000fd5b04945060008514156130b7576130bc565b613037565b819350505050919050565b60007f01ffc9a7000000000000000000000000000000000000000000000000000000007bffffffffffffffffffffffffffffffffffffffffffffffffffffffff1916827bffffffffffffffffffffffffffffffffffffffffffffffffffffffff1916149050919050565b600073ffffffffffffffffffffffffffffffffffffffff168473ffffffffffffffffffffffffffffffffffffffff1614806131985750600073ffffffffffffffffffffffffffffffffffffffff168373ffffffffffffffffffffffffffffffffffffffff16145b6131d7576040517f08c379a00000000000000000000000000000000000000000000000000000000081526004016131ce90614869565b60405180910390fd5b50505050565b600073ffffffffffffffffffffffffffffffffffffffff168473ffffffffffffffffffffffffffffffffffffffff16141561325b57818373ffffffffffffffffffffffffffffffffffffffff167fe9274a84b19e9428826de6bae8c48329354f8f0e73f771b97cae2d9dccd45a2760405160405180910390a36132d6565b600073ffffffffffffffffffffffffffffffffffffffff168373ffffffffffffffffffffffffffffffffffffffff1614156132d557818373ffffffffffffffffffffffffffffffffffffffff167fec9ab91322523c899ede7830ec9bfc992b5981cdcc27b91162fb23de5791117b60405160405180910390a35b5b50505050565b6132e68383613705565b6132f36000848484613337565b613332576040517f08c379a0000000000000000000000000000000000000000000000000000000008152600401613329906145a9565b60405180910390fd5b505050565b60006133588473ffffffffffffffffffffffffffffffffffffffff16613923565b156134c1578373ffffffffffffffffffffffffffffffffffffffff1663150b7a026133816125ee565b8786866040518563ffffffff1660e01b81526004016133a394939291906144b7565b602060405180830381600087803b1580156133bd57600080fd5b505af19250505080156133ee57506040513d601f19601f820116820180604052508101906133eb9190613d98565b60015b613471573d806000811461341e576040519150601f19603f3d011682016040523d82523d6000602084013e613423565b606091505b50600081511415613469576040517f08c379a0000000000000000000000000000000000000000000000000000000008152600401613460906145a9565b60405180910390fd5b805181602001fd5b63150b7a0260e01b7bffffffffffffffffffffffffffffffffffffffffffffffffffffffff1916817bffffffffffffffffffffffffffffffffffffffffffffffffffffffff1916149150506134c6565b600190505b949350505050565b600080600090507a184f03e93ff9f4daa797ed6e38ed64bf6a1f0100000000000000008310613552577a184f03e93ff9f4daa797ed6e38ed64bf6a1f0100000000000000008381613548577f4e487b7100000000000000000000000000000000000000000000000000000000600052601260045260246000fd5b0492506040810190505b6d04ee2d6d415b85acef810000000083106135b5576d04ee2d6d415b85acef810000000083816135ab577f4e487b7100000000000000000000000000000000000000000000000000000000600052601260045260246000fd5b0492506020810190505b662386f26fc10000831061360a57662386f26fc100008381613600577f4e487b7100000000000000000000000000000000000000000000000000000000600052601260045260246000fd5b0492506010810190505b6305f5e1008310613659576305f5e100838161364f577f4e487b7100000000000000000000000000000000000000000000000000000000600052601260045260246000fd5b0492506008810190505b61271083106136a457612710838161369a577f4e487b7100000000000000000000000000000000000000000000000000000000600052601260045260246000fd5b0492506004810190505b606483106136ed57606483816136e3577f4e487b7100000000000000000000000000000000000000000000000000000000600052601260045260246000fd5b0492506002810190505b600a83106136fc576001810190505b80915050919050565b600073ffffffffffffffffffffffffffffffffffffffff168273ffffffffffffffffffffffffffffffffffffffff161415613775576040517f08c379a000000000000000000000000000000000000000000000000000000000815260040161376c90614729565b60405180910390fd5b61377e81612ed0565b156137be576040517f08c379a00000000000000000000000000000000000000000000000000000000081526004016137b590614609565b60405180910390fd5b6137cc600083836001613131565b6137d581612ed0565b15613815576040517f08c379a000000000000000000000000000000000000000000000000000000000815260040161380c90614609565b60405180910390fd5b6001600360008473ffffffffffffffffffffffffffffffffffffffff1673ffffffffffffffffffffffffffffffffffffffff16815260200190815260200160002060008282540192505081905550816002600083815260200190815260200160002060006101000a81548173ffffffffffffffffffffffffffffffffffffffff021916908373ffffffffffffffffffffffffffffffffffffffff160217905550808273ffffffffffffffffffffffffffffffffffffffff16600073ffffffffffffffffffffffffffffffffffffffff167fddf252ad1be2c89b69c2b068fc378daa952ba7f163c4a11628f55a4df523b3ef60405160405180910390a461391f6000838360016131dd565b5050565b6000808273ffffffffffffffffffffffffffffffffffffffff163b119050919050565b82805461395290614cbb565b90600052602060002090601f01602090048101928261397457600085556139bb565b82601f1061398d57805160ff19168380011785556139bb565b828001600101855582156139bb579182015b828111156139ba57825182559160200191906001019061399f565b5b5090506139c891906139cc565b5090565b5b808211156139e55760008160009055506001016139cd565b5090565b60006139fc6139f784614964565b61493f565b905082815260208101848484011115613a1457600080fd5b613a1f848285614c79565b509392505050565b6000613a3a613a3584614995565b61493f565b905082815260208101848484011115613a5257600080fd5b613a5d848285614c79565b509392505050565b600081359050613a7481615438565b92915050565b600081359050613a898161544f565b92915050565b600081359050613a9e81615466565b92915050565b600081519050613ab381615466565b92915050565b600081359050613ac88161547d565b92915050565b600081519050613add8161547d565b92915050565b600082601f830112613af457600080fd5b8135613b048482602086016139e9565b91505092915050565b600082601f830112613b1e57600080fd5b8135613b2e848260208601613a27565b91505092915050565b600081359050613b4681615494565b92915050565b600081519050613b5b81615494565b92915050565b600081359050613b70816154ab565b92915050565b600060208284031215613b8857600080fd5b6000613b9684828501613a65565b91505092915050565b600060208284031215613bb157600080fd5b6000613bbf84828501613a7a565b91505092915050565b60008060408385031215613bdb57600080fd5b6000613be985828601613a65565b9250506020613bfa85828601613a65565b9150509250929050565b600080600060608486031215613c1957600080fd5b6000613c2786828701613a65565b9350506020613c3886828701613a65565b9250506040613c4986828701613b37565b9150509250925092565b60008060008060808587031215613c6957600080fd5b6000613c7787828801613a65565b9450506020613c8887828801613a65565b9350506040613c9987828801613b37565b925050606085013567ffffffffffffffff811115613cb657600080fd5b613cc287828801613ae3565b91505092959194509250565b60008060408385031215613ce157600080fd5b6000613cef85828601613a65565b9250506020613d0085828601613a8f565b9150509250929050565b60008060408385031215613d1d57600080fd5b6000613d2b85828601613a65565b9250506020613d3c85828601613b37565b9150509250929050565b600060208284031215613d5857600080fd5b6000613d6684828501613aa4565b91505092915050565b600060208284031215613d8157600080fd5b6000613d8f84828501613ab9565b91505092915050565b600060208284031215613daa57600080fd5b6000613db884828501613ace565b91505092915050565b600060208284031215613dd357600080fd5b600082013567ffffffffffffffff811115613ded57600080fd5b613df984828501613b0d565b91505092915050565b600060208284031215613e1457600080fd5b6000613e2284828501613b37565b91505092915050565b600060208284031215613e3d57600080fd5b6000613e4b84828501613b4c565b91505092915050565b600080600060608486031215613e6957600080fd5b6000613e7786828701613b37565b9350506020613e8886828701613a65565b9250506040613e9986828701613b61565b9150509250925092565b613eac81614c43565b82525050565b613ebb81614bbb565b82525050565b613eca81614ba9565b82525050565b613ed981614bcd565b82525050565b6000613eea826149c6565b613ef481856149dc565b9350613f04818560208601614c88565b613f0d81614dda565b840191505092915050565b6000613f23826149d1565b613f2d81856149f8565b9350613f3d818560208601614c88565b613f4681614dda565b840191505092915050565b6000613f5c826149d1565b613f668185614a09565b9350613f76818560208601614c88565b80840191505092915050565b6000613f8f6019836149f8565b9150613f9a82614deb565b602082019050919050565b6000613fb2602d836149f8565b9150613fbd82614e14565b604082019050919050565b6000613fd56032836149f8565b9150613fe082614e63565b604082019050919050565b6000613ff86026836149f8565b915061400382614eb2565b604082019050919050565b600061401b6025836149f8565b915061402682614f01565b604082019050919050565b600061403e601c836149f8565b915061404982614f50565b602082019050919050565b60006140616024836149f8565b915061406c82614f79565b604082019050919050565b60006140846019836149f8565b915061408f82614fc8565b602082019050919050565b60006140a76011836149f8565b91506140b282614ff1565b602082019050919050565b60006140ca600e836149f8565b91506140d58261501a565b602082019050919050565b60006140ed6029836149f8565b91506140f882615043565b604082019050919050565b60006141106026836149f8565b915061411b82615092565b604082019050919050565b6000614133601f836149f8565b915061413e826150e1565b602082019050919050565b60006141566011836149f8565b91506141618261510a565b602082019050919050565b60006141796020836149f8565b915061418482615133565b602082019050919050565b600061419c6011836149f8565b91506141a78261515c565b602082019050919050565b60006141bf600583614a09565b91506141ca82615185565b600582019050919050565b60006141e26023836149f8565b91506141ed826151ae565b604082019050919050565b60006142056020836149f8565b9150614210826151fd565b602082019050919050565b60006142286016836149f8565b915061423382615226565b602082019050919050565b600061424b6018836149f8565b91506142568261524f565b602082019050919050565b600061426e6021836149f8565b915061427982615278565b604082019050919050565b60006142916017836149f8565b915061429c826152c7565b602082019050919050565b60006142b46000836149ed565b91506142bf826152f0565b600082019050919050565b60006142d7603d836149f8565b91506142e2826152f3565b604082019050919050565b60006142fa6017836149f8565b915061430582615342565b602082019050919050565b600061431d6014836149f8565b91506143288261536b565b602082019050919050565b6000614340601f836149f8565b915061434b82615394565b602082019050919050565b6000614363601e836149f8565b915061436e826153bd565b602082019050919050565b6000614386600f836149f8565b9150614391826153e6565b602082019050919050565b60006143a96019836149f8565b91506143b48261540f565b602082019050919050565b6143c881614c25565b82525050565b6143d781614c2f565b82525050565b60006143e98285613f51565b91506143f58284613f51565b9150614400826141b2565b91508190509392505050565b6000614417826142a7565b9150819050919050565b60006020820190506144366000830184613ec1565b92915050565b60006020820190506144516000830184613eb2565b92915050565b600060408201905061446c6000830185613ea3565b61447960208301846143bf565b9392505050565b60006060820190506144956000830186613ec1565b6144a26020830185613ec1565b6144af60408301846143bf565b949350505050565b60006080820190506144cc6000830187613ec1565b6144d96020830186613ec1565b6144e660408301856143bf565b81810360608301526144f88184613edf565b905095945050505050565b60006040820190506145186000830185613ec1565b61452560208301846143bf565b9392505050565b60006020820190506145416000830184613ed0565b92915050565b600060208201905081810360008301526145618184613f18565b905092915050565b6000602082019050818103600083015261458281613f82565b9050919050565b600060208201905081810360008301526145a281613fa5565b9050919050565b600060208201905081810360008301526145c281613fc8565b9050919050565b600060208201905081810360008301526145e281613feb565b9050919050565b600060208201905081810360008301526146028161400e565b9050919050565b6000602082019050818103600083015261462281614031565b9050919050565b6000602082019050818103600083015261464281614054565b9050919050565b6000602082019050818103600083015261466281614077565b9050919050565b600060208201905081810360008301526146828161409a565b9050919050565b600060208201905081810360008301526146a2816140bd565b9050919050565b600060208201905081810360008301526146c2816140e0565b9050919050565b600060208201905081810360008301526146e281614103565b9050919050565b6000602082019050818103600083015261470281614126565b9050919050565b6000602082019050818103600083015261472281614149565b9050919050565b600060208201905081810360008301526147428161416c565b9050919050565b600060208201905081810360008301526147628161418f565b9050919050565b60006020820190508181036000830152614782816141d5565b9050919050565b600060208201905081810360008301526147a2816141f8565b9050919050565b600060208201905081810360008301526147c28161421b565b9050919050565b600060208201905081810360008301526147e28161423e565b9050919050565b6000602082019050818103600083015261480281614261565b9050919050565b6000602082019050818103600083015261482281614284565b9050919050565b60006020820190508181036000830152614842816142ca565b9050919050565b60006020820190508181036000830152614862816142ed565b9050919050565b6000602082019050818103600083015261488281614310565b9050919050565b600060208201905081810360008301526148a281614333565b9050919050565b600060208201905081810360008301526148c281614356565b9050919050565b600060208201905081810360008301526148e281614379565b9050919050565b600060208201905081810360008301526149028161439c565b9050919050565b600060208201905061491e60008301846143bf565b92915050565b600060208201905061493960008301846143ce565b92915050565b600061494961495a565b90506149558282614ced565b919050565b6000604051905090565b600067ffffffffffffffff82111561497f5761497e614dab565b5b61498882614dda565b9050602081019050919050565b600067ffffffffffffffff8211156149b0576149af614dab565b5b6149b982614dda565b9050602081019050919050565b600081519050919050565b600081519050919050565b600082825260208201905092915050565b600081905092915050565b600082825260208201905092915050565b600081905092915050565b6000614a1f82614c25565b9150614a2a83614c25565b9250827fffffffffffffffffffffffffffffffffffffffffffffffffffffffffffffffff03821115614a5f57614a5e614d1e565b5b828201905092915050565b6000614a7582614c2f565b9150614a8083614c2f565b92508267ffffffffffffffff03821115614a9d57614a9c614d1e565b5b828201905092915050565b6000614ab382614c25565b9150614abe83614c25565b925082614ace57614acd614d4d565b5b828204905092915050565b6000614ae482614c25565b9150614aef83614c25565b9250817fffffffffffffffffffffffffffffffffffffffffffffffffffffffffffffffff0483118215151615614b2857614b27614d1e565b5b828202905092915050565b6000614b3e82614c2f565b9150614b4983614c2f565b92508167ffffffffffffffff0483118215151615614b6a57614b69614d1e565b5b828202905092915050565b6000614b8082614c25565b9150614b8b83614c25565b925082821015614b9e57614b9d614d1e565b5b828203905092915050565b6000614bb482614c05565b9050919050565b6000614bc682614c05565b9050919050565b60008115159050919050565b60007fffffffff0000000000000000000000000000000000000000000000000000000082169050919050565b600073ffffffffffffffffffffffffffffffffffffffff82169050919050565b6000819050919050565b600067ffffffffffffffff82169050919050565b6000614c4e82614c55565b9050919050565b6000614c6082614c67565b9050919050565b6000614c7282614c05565b9050919050565b82818337600083830152505050565b60005b83811015614ca6578082015181840152602081019050614c8b565b83811115614cb5576000848401525b50505050565b60006002820490506001821680614cd357607f821691505b60208210811415614ce757614ce6614d7c565b5b50919050565b614cf682614dda565b810181811067ffffffffffffffff82111715614d1557614d14614dab565b5b80604052505050565b7f4e487b7100000000000000000000000000000000000000000000000000000000600052601160045260246000fd5b7f4e487b7100000000000000000000000000000000000000000000000000000000600052601260045260246000fd5b7f4e487b7100000000000000000000000000000000000000000000000000000000600052602260045260246000fd5b7f4e487b7100000000000000000000000000000000000000000000000000000000600052604160045260246000fd5b6000601f19601f8301169050919050565b7f4e6f20636f6e7472616374207472616e73616374696f6e732100000000000000600082015250565b7f4552433732313a2063616c6c6572206973206e6f7420746f6b656e206f776e6560008201527f72206f7220617070726f76656400000000000000000000000000000000000000602082015250565b7f4552433732313a207472616e7366657220746f206e6f6e20455243373231526560008201527f63656976657220696d706c656d656e7465720000000000000000000000000000602082015250565b7f4f776e61626c653a206e6577206f776e657220697320746865207a65726f206160008201527f6464726573730000000000000000000000000000000000000000000000000000602082015250565b7f4552433732313a207472616e736665722066726f6d20696e636f72726563742060008201527f6f776e6572000000000000000000000000000000000000000000000000000000602082015250565b7f4552433732313a20746f6b656e20616c7265616479206d696e74656400000000600082015250565b7f4552433732313a207472616e7366657220746f20746865207a65726f2061646460008201527f7265737300000000000000000000000000000000000000000000000000000000602082015250565b7f4552433732313a20617070726f766520746f2063616c6c657200000000000000600082015250565b7f5472616e736665722031206661696c6564000000000000000000000000000000600082015250565b7f496e76616c69642073656e646572000000000000000000000000000000000000600082015250565b7f4552433732313a2061646472657373207a65726f206973206e6f74206120766160008201527f6c6964206f776e65720000000000000000000000000000000000000000000000602082015250565b7f6e617469766520746f6b656e2076616c75652073656e74206973206e6f74206360008201527f6f72726563740000000000000000000000000000000000000000000000000000602082015250565b7f616c7265616479206861766520737562736372697074696f6e20746f6b656e00600082015250565b7f5472616e736665722032206661696c6564000000000000000000000000000000600082015250565b7f4552433732313a206d696e7420746f20746865207a65726f2061646472657373600082015250565b7f6e6f6e6578697374656e7420746f6b656e000000000000000000000000000000600082015250565b7f2e6a736f6e000000000000000000000000000000000000000000000000000000600082015250565b7f6e6f20737562736372697074696f6e20746f6b656e2c2063616e6e6f7420726560008201527f6e65770000000000000000000000000000000000000000000000000000000000602082015250565b7f4f776e61626c653a2063616c6c6572206973206e6f7420746865206f776e6572600082015250565b7f45786365656473206d61782073756220706572696f6400000000000000000000600082015250565b7f4552433732313a20696e76616c696420746f6b656e2049440000000000000000600082015250565b7f4552433732313a20617070726f76616c20746f2063757272656e74206f776e6560008201527f7200000000000000000000000000000000000000000000000000000000000000602082015250565b7f737562736372697074696f6e206e6f7420616374697665000000000000000000600082015250565b50565b7f4552433732313a20617070726f76652063616c6c6572206973206e6f7420746f60008201527f6b656e206f776e6572206f7220617070726f76656420666f7220616c6c000000602082015250565b7f7573657220616c72656164792073756273637269626564000000000000000000600082015250565b7f63616e2774207472616e7366657220746f6b656e000000000000000000000000600082015250565b7f5265656e7472616e637947756172643a207265656e7472616e742063616c6c00600082015250565b7f737562736372697074696f6e204e6174697665206e6f74206163746976650000600082015250565b7f6661696c6564207472616e736665720000000000000000000000000000000000600082015250565b7f796f2c2063616e7420646f20746861742073686974206c6f6c00000000000000600082015250565b61544181614ba9565b811461544c57600080fd5b50565b61545881614bbb565b811461546357600080fd5b50565b61546f81614bcd565b811461547a57600080fd5b50565b61548681614bd9565b811461549157600080fd5b50565b61549d81614c25565b81146154a857600080fd5b50565b6154b481614c2f565b81146154bf57600080fd5b5056fea26469706673582212209253d4ec3cf8c2d370745c35d00fe111b971b5a9fdee39e64fe301a370db1bcf64736f6c63430008040033",
	"linkReferences": {},
	"deployedLinkReferences": {}
}